{
  "contractName": "ProfileLocation",
  "abi": [
    {
      "inputs": [],
      "payable": false,
      "stateMutability": "nonpayable",
      "type": "constructor"
    },
    {
      "constant": true,
      "inputs": [],
      "name": "LocationCount",
      "outputs": [
        {
          "internalType": "uint256",
          "name": "",
          "type": "uint256"
        }
      ],
      "payable": false,
      "stateMutability": "view",
      "type": "function"
    },
    {
      "constant": true,
      "inputs": [
        {
          "internalType": "uint256",
          "name": "",
          "type": "uint256"
        }
      ],
      "name": "locations",
      "outputs": [
        {
          "internalType": "uint256",
          "name": "id",
          "type": "uint256"
        },
        {
          "internalType": "string",
          "name": "area",
          "type": "string"
        },
        {
          "internalType": "bool",
          "name": "clear",
          "type": "bool"
        }
      ],
      "payable": false,
      "stateMutability": "view",
      "type": "function"
    },
    {
      "constant": false,
      "inputs": [
        {
          "internalType": "string",
          "name": "_area",
          "type": "string"
        }
      ],
      "name": "createLocation",
      "outputs": [],
      "payable": false,
      "stateMutability": "nonpayable",
      "type": "function"
    }
  ],
  "bytecode": "0x60806040526000805534801561001457600080fd5b5061003f6040518060600160405280602a81526020016104fa602a91396001600160e01b0361004416565b61014b565b6000805460019081018083556040805160608101825282815260208082018781528284018790529386528481529190942084518155915180519293610091939085019291909101906100b0565b50604091909101516002909101805460ff191691151591909117905550565b828054600181600116156101000203166002900490600052602060002090601f016020900481019282601f106100f157805160ff191683800117855561011e565b8280016001018555821561011e579182015b8281111561011e578251825591602001919060010190610103565b5061012a92915061012e565b5090565b61014891905b8082111561012a5760008155600101610134565b90565b6103a08061015a6000396000f3fe608060405234801561001057600080fd5b50600436106100415760003560e01c8063aeb3320c14610046578063b9e0db3514610060578063d54d66b014610107575b600080fd5b61004e6101af565b60408051918252519081900360200190f35b61007d6004803603602081101561007657600080fd5b50356101b5565b604051808481526020018060200183151515158152602001828103825284818151815260200191508051906020019080838360005b838110156100ca5781810151838201526020016100b2565b50505050905090810190601f1680156100f75780820380516001836020036101000a031916815260200191505b5094505050505060405180910390f35b6101ad6004803603602081101561011d57600080fd5b81019060208101813564010000000081111561013857600080fd5b82018360208201111561014a57600080fd5b8035906020019184600183028401116401000000008311171561016c57600080fd5b91908080601f016020809104026020016040519081016040528093929190818152602001838380828437600092019190915250929550610264945050505050565b005b60005481565b600160208181526000928352604092839020805481840180548651600296821615610100026000190190911695909504601f810185900485028601850190965285855290949193929091908301828280156102515780601f1061022657610100808354040283529160200191610251565b820191906000526020600020905b81548152906001019060200180831161023457829003601f168201915b5050506002909301549192505060ff1683565b60008054600190810180835560408051606081018252828152602080820187815282840187905293865284815291909420845181559151805192936102b1939085019291909101906102d0565b50604091909101516002909101805460ff191691151591909117905550565b828054600181600116156101000203166002900490600052602060002090601f016020900481019282601f1061031157805160ff191683800117855561033e565b8280016001018555821561033e579182015b8281111561033e578251825591602001919060010190610323565b5061034a92915061034e565b5090565b61036891905b8082111561034a5760008155600101610354565b9056fea265627a7a7231582019484c40de8cb3994733ec4ebf7d29171dee194e2a4ace074c2e707d6d4ba2e464736f6c63430005100032436865636b204f75742068747470733a2f2f6769746875622e636f6d2f4368697261672d4b756e646572",
  "source": "pragma solidity ^0.5.16;\r\n\r\ncontract ProfileLocation {\r\n    uint public LocationCount = 0;\r\nstruct Location{\r\n    uint id;\r\n    string area;\r\n    bool clear;\r\n  }\r\n\r\n  mapping(uint => Location) public locations;\r\n\r\n  constructor() public {\r\n    createLocation(\"Check Out https://github.com/Chirag-Kunder\");\r\n  }\r\n\r\nfunction createLocation(string memory _area) public {\r\n LocationCount ++;\r\n locations[LocationCount] = Location(LocationCount, _area, false);   \r\n}\r\n\r\n\r\n}",
  "sourcePath": "D:\\eth-01\\contracts\\ProfileLocation.sol",
  "compiler": {
    "name": "solc",
    "version": "0.5.16+commit.9c3226ce.Emscripten.clang"
  },
  "schemaVersion": "3.4.15",
  "updatedAt": "2023-08-27T10:40:28.729Z",
  "devdoc": {
    "methods": {}
  },
  "userdoc": {
    "methods": {}
  }
}