{
  "contractName": "ProfileLocation",
  "abi": [
    {
      "constant": true,
      "inputs": [],
      "name": "LocationCount",
      "outputs": [
        {
          "internalType": "uint256",
          "name": "",
          "type": "uint256"
        }
      ],
      "payable": false,
      "stateMutability": "view",
      "type": "function"
    }
  ],
  "bytecode": "0x608060405260008055348015601357600080fd5b506080806100226000396000f3fe6080604052348015600f57600080fd5b506004361060285760003560e01c8063aeb3320c14602d575b600080fd5b60336045565b60408051918252519081900360200190f35b6000548156fea265627a7a723158200c90894fa9fc645bdb2728d61e31d90c805a87c60046c11072cc2b15655e21f064736f6c63430005100032",
  "source": "pragma solidity ^0.5.16;\r\n\r\ncontract ProfileLocation {\r\n    uint public LocationCount = 0;\r\n}",
  "sourcePath": "D:\\eth-01\\contracts\\ProfileLocation.sol",
  "compiler": {
    "name": "solc",
    "version": "0.5.16+commit.9c3226ce.Emscripten.clang"
  },
  "schemaVersion": "3.4.15",
  "updatedAt": "2023-08-27T08:48:04.451Z",
  "networkType": "ethereum",
  "devdoc": {
    "methods": {}
  },
  "userdoc": {
    "methods": {}
  }
}